S0200000414443204576656E742053797374656D204578616D706C652E7372656389
S1130000402100202D0100002901000029010000E9
S113001000000000000000000000000000000000DC
S113002000000000000000000000000029010000A2
S11300300000000000000000290100002901000068
S1130040290100002901000091110000290100008C
S113005029010000290100002901000029010000F4
S113006029010000290100002901000029010000E4
S113007029010000290100002901000029010000D4
S113008029010000B5150000290100002901000024
S11300902901000029010000390F00002901000096
S11300A029010000290100002901000029010000A4
S11300B00000000010B5064C2378002B07D1054B37
S11300C0002B02D0044800E000BF0123237010BDC0
S11300D06400002000000000702E0000084B10B5E2
S11300E0002B03D00749084800E000BF0748036815
S11300F0002B00D110BD064B002BFBD09847F9E72D
S11301000000000068000020702E0000702E000027
S11301100000000010B5024B9847024B984710BDF1
S11301207103000085170000FEE7000010B5124AB5
S1130130124B9A4209D0114B0F4A03E0116819601F
S1130140043304320E498B42F8D30E4B02E00022F2
S11301501A6004330C4A9342F9D30C4AFF210C4B26
S11301608B4393600B4A516880230B4353600A4BC3
S113017098470A4B9847FEE7702E000000000020C5
S113018064000020640000204001002000ED00E035
S11301900000000000400041911A000065160000B4
S11301A010B5094AD16980235B000B43D361412117
S11301B0EC23064AD150064B9847020005490648ED
S11301C0064B984710BDC04600040040001800408C
S11301D0B11500000020004220010020D9080000D1
S11301E0F0B585B01C4A136A08210B4313623831F9
S11301F0F8231A4AD1501A4C1A4E002302931A4B70
S11302000193012500950023220018493000184F5E
S1130210B847221D102300213000164CA04720218E
S11302208423C022D205D150134A24331349D15018
S1130230C0210906D150C521535CAB4301200343BF
S1130240DBB253541339535C0F2003401020034393
S1130250DBB2535405B0F0BD000400400018004068
S113026080000020C000002008010020000C004392
S11302701D040000D10400000028004020000040BC
S1130280034A516980235B000B4353617047C046A6
S11302900004004010B5034B984703490348044B3E
S11302A0984710BD8102000000200040EC000020AF
S11302B03907000030B50F4B5622995C0125A9433C
S11302C001242143C9B299543B20195C473A914314
S11302D002221143C9B2195457215A5CAA4322433A
S11302E0D2B25A541A5C48390A4020210A43D2B285
S11302F01A5430BD00280040064B4021D4229950A6
S11303000331103A9950044AD3693B390B43D36102
S11303107047C046001800400004004010B5054B6B
S11303209847002204490548054B9847054B9847D0
S113033010BDC046F9020000000C0042B4000020C9
S1130340390A0000B502000010B540219423054A83
S1130350D150054A136A3F390B431362034B984744
S113036010BDC04600180040000400408107000092
S113037010B5064B9847064B9847064B9847064BD3
S11303809847064B9847064B984710BD550F0000F9
S1130390E1010000950200001D030000A10100001E
S11303A04903000010B58369002B00D0984710BDA5
S11303B010B5C369002B00D0984710BDF0B583B0C9
S11303C005000E001100036A9A5D53009B18DC00BF
S11303D0836A9C466444271D01916B461979380051
S11303E00C4B984728000C4B9847012807D9019BD0
S11303F0190A3800074B9847A38A0133A382A38ABA
S11304000133A3822368002B02D0310028009847CF
S113041003B0F0BDB10B0000E50E0000F0B5D64608
S113042000B582B00500019116001C0008AB1F78CE
S113043000280CD000290CD0002A0CD0002F0CD09E
S1130440099B002B01D0012008E0002006E00020D9
S113045004E0002002E0002000E000203F221649D2
S1130460164B9A469847621CFB0FD017BA42584164
S1130470C0B240221049D047002303E0FF22F254C7
S11304800133DBB2A342F9D92E622423EC540133A5
S1130490EF54099BAB6201992800094B9847002847
S11304A005D1084BAB60084B2B60084B6B6002B066
S11304B004BC9246F0BDC046A02B0000B10A000067
S11304C0390E0000BD030000A5030000B1030000C5
S11304D0F0B583B007000C0000920193002819D0F6
S11304E0002A19D0002B19D10020244E6622310095
S11304F0234DA8472423FB5C0020A3424041C0B203
S113050067223100A847396A0B5DFF2B2CD10026E6
S1130510002307E00020E8E70020E6E70120E4E705
S11305200133DBB22422BA5C934205D8CA5CFF2AA9
S1130530F6D00136F6B2F3E72523FB5C9E4216D8CB
S113054073009B19DD00BB6A58190430019A0099A5
S11305500C4B984700280DD13B6A1E55BB6A5B19AA
S113056000229A8203B0F0BD0D204042FAE71C201D
S11305704042F7E70D204042F4E7C046A02B0000BC
S1130580B10A0000190B0000F8B506000C000B4D71
S1130590431E9841C0B283222900094FB84724233F
S11305A0F35C0020A3424041C0B284222900B84732
S11305B021003000034B98470020F8BDA02B000019
S11305C0B10A0000D10E0000F0B5CE4600B504001B
S11305D00D0017001E00431E9841C0B29C2216490C
S11305E0164B994698472423E35C0020AB424041D4
S11305F0C0B29D221049C847236A5B5D012F17D002
S1130600002F04D0022F15D00D2040420DE05A00D7
S1130610D318DA00A36A9E50731E9E41F3B23A00C7
S113062029002000064CA047002004BC9146F0BDE0
S1130630A661F1E7E661EFE7A02B0000B10A000034
S1130640FB0E0000F0B5CE46474680B583B00500EA
S11306500C0090461E00002834D0002A34D0002E0E
S113066034D10020BC222549254FB8472423EB5C14
S11306700020A3424041C0B2BD222049B84728000F
S1130680204B9847010030001F4B9847484248418F
S1130690C0B2BF221949B8472B6A1A5DA96A530030
S11306A09B18DA008946914401A8184B98474B4699
S11306B01D1D2800164B9847070001A8154B9847A5
S11306C000240BE00020CDE70020CBE70120C9E7A0
S11306D00134A4B2414428000F4B98472100A7429B
S11306E001D9B442F4D34B469B8A1B1B4A469382DE
S11306F0200003B00CBC90469946F0BDA02B00002E
S1130700B10A0000E50E0000851A00001D07000074
S1130710F10B00002B070000650B0000EFF31083C2
S1130720036072B6BFF35F8F7047BFF35F8F0368D8
S113073083F310887047000070B504000D00431E59
S11307409841C0B2E022520009490A4B98472368F5
S1130750AB4208D0002B08D125602000064B9847F7
S1130760064B636170BD0020FCE712204042F9E7AC
S1130770BC2B0000B10A000009110000B207000000
S113078010B5014B984710BD990F000070B50400D7
S11307900D00160000280ED000290AD001203422B2
S11307A00649074B984723683200290020009847E0
S11307B070BD0020F3E70020F1E7C046D82B00000D
S11307C0B10A000070B504000D00160000280ED018
S11307D000290AD001203D220649074B9847636847
S11307E0320029002000984770BD0020F3E7002064
S11307F0F1E7C046D82B0000B10A000010B5054B44
S11308009847002803D1044B9847002010BD0D20C1
S11308104042FBE7971000004D0F0000F8B5066852
S1130820002E02D0330000250CE0104B984718E04E
S11308309F68BC466444A41A01348F68BC420BD23E
S11308401D001B68002B07D05C689442F0D8A41AE2
S11308509F68BC466444F0E7B34203D02800044BCD
S11308609847F8BD014B9847FBE7C046D10A000002
S1130870FD0A0000F8B50500446903695E1C0661C1
S1130880037EDB0702D4037E9B070AD52B7E02225C
S11308901343DBB22B76F8BD6F69E36820009847F9
S11308A03C00002CF7D06368F31AA2689342F2D399
S11308B02F0014373800064B9847237C012BEBD1CB
S11308C06660320021003800024B9847E4E7C046D6
S11308D0050B00001D08000070B504000D00002881
S11308E012D000290ED001203B220849084B98471A
S11308F029002000074B984700232361064B2360FF
S1130900002070BD0020EFE70020EDE7EC2B000095
S1130910B10A0000F11300007508000010B50400CE
S1130920431E9841C0B253220749084B9847200000
S1130930074B9847002804D12000064B9847002015
S113094010BD11204042FBE7EC2B0000B10A00006F
S11309509F1500008D150000F8B505000E00170066
S1130960002823D0002923D0002A23D10020F122FB
S11309701149124B98472C0008342000104B98471B
S11309800028F8D00025715D20000E4B9847200008
S11309900B4B98470028FAD00135BD42F3D3200011
S11309A0094B98470028FAD02800F8BD0020DEE75C
S11309B00020DCE70120DAE7042C0000B10A000083
S11309C043130000331300004D130000F8B5CE4666
S11309D0474680B5051E884691461FD000291FD082
S11309E0002A1FD10020862252000F490F4B98473E
S11309F000262C00083420000D4B98470028F8D01E
S1130A0043469F1920000B4B9847387001364E45DA
S1130A10EFD330000CBC90469946F8BD0020E2E7C5
S1130A200020E0E70120DEE7042C0000B10A00000A
S1130A30591300003B13000070B504000D0000289A
S1130A4014D0002910D0012034220949094B9847B9
S1130A50200008302900084B9847002803D1074B91
S1130A606360074B236070BD0020EDE70020EBE7D7
S1130A70042C0000B10A0000F5120000CD090000AA
S1130A805909000010B50400431E9841C0B2532216
S1130A900449054B984720000830044B9847002030
S1130AA010BDC046042C0000B10A00002113000050
S1130AB0002800D100BE70470368002B03D08B428E
S1130AC003D01B68F9E7002070470120FCE7000011
S1130AD070B504000D00064B984701235840C0B27E
S1130AE039220449044B984723682B60256070BD64
S1130AF0B90A0000202C0000B10A000003680B6052
S1130B00016070470368002B03D01A680260180064
S1130B1070470020FCE7000070B504000E001500CB
S1130B20002812D0002912D0002A12D10020282235
S1130B300A490B4B98476B1E2B420CD16360002370
S1130B40A360E3602660002070BD0020EFE7002072
S1130B50EDE70120EBE70D204042F5E7402C0000D3
S1130B60B10A000070B504000D00002816D0002959
S1130B7012D0012040220C490C4B9847A368E2682C
S1130B809A420DD0626813402268D35C2B70A3682C
S1130B900133A360002070BD0020EBE70020E9E7EB
S1130BA00A204042F7E7C046402C0000B10A00008A
S1130BB070B504000D00431E9841C0B251220A4989
S1130BC00A4B98476368E26813402268D554E36887
S1130BD0A2689A1A61688A4201D9591AA16001333C
S1130BE0E360002070BDC046402C0000B10A000044
S1130BF010B50400431E9841C0B267220349044B58
S1130C009847E068A368C01A10BDC046402C000095
S1130C10B10A00000300064A1268002A04D0044AFC
S1130C201068C318136070470249014A1160F6E75F
S1130C30940000204021002001204042704780237E
S1130C409B014B60002070470120704700207047D3
S1130C500020704716207047034B984200D070471D
S1130C60024B1960FBE7C046000C004398000020CB
S1130C7010B54269917953790B40D90704D4990787
S1130C800AD45B070ED410BD012393718368928C40
S1130C9092B200219847F6E702239371436800213A
S1130CA09847F0E704239371036800219847EAE723
S1130CB010B50B4B984702000020002806D08E2266
S1130CC008490020084B9847002010BDC3001B1A98
S1130CD09900064BCB5C9A42F7D00130C0B2ECE7E6
S1130CE0510C0000802C0000B10A0000642C0000AC
S1130CF070B504000D004B4B1B681E02E022D200AD
S1130D003240DB0807261E401643474BC0184342B7
S1130D105841C0B2B2224549454B9847238CDB0762
S1130D2014D4238C9B07FCD123789B0709D5237803
S1130D30022293432370238C9B07FCD1238C9B07B3
S1130D40FCD401232370238C9B07FCD1238CDB0769
S1130D50FCD4A685EA00521B9100364B5B189A78A6
S1130D606270DA78A2701A79E270DB882381238CAE
S1130D705B05FCD1EB005B1B9A002E4B9B181B8977
S1130D806381238C5B05FCD1EB005B1B9A00294B30
S1130D909B189B7A2373238C5B05FCD1EB005B1BB4
S1130DA09A00244B9B18DB7A6373238C5B05FCD17C
S1130DB0EB005B1B9A001F4B9B189B89E381238CE0
S1130DC05B06FCD4EB005B1B9A001A4B9B18DB8977
S1130DD02382238C1B06FCD4EB005B1B9A00154B6F
S1130DE09B181B8A6382238CDB05FCD4EB005B1B02
S1130DF09A00104B9B185B8AA382238C9B05FCD41E
S1130E000C4AEB00581B810008005118097D21771A
S1130E100021A162121853782370238C9B07FCD104
S1130E20002070BD2060800000F4FFBC802C000016
S1130E30B10A0000642C000070B505000C00431ECC
S1130E409841C0B2EE221B491B4B984720001B4B14
S1130E509847010020001A4B9847061E01D0300025
S1130E6070BD6C6129002000164B98472800164B72
S1130E70984743B2002B0ADB1F21014001228A401C
S1130E808021124C6250BFF34F8FBFF36F8F002B42
S1130E9007DB1F21014001228A40C02149000B4C7D
S1130EA06250002BDBDB1F2318401E3B8340074AA4
S1130EB01360D4E7802C0000B10A0000B10C0000DC
S1130EC0F10C0000590C0000550C000000E100E09A
S1130ED04269137802210B43DBB21370138C9B0716
S1130EE0FCD1704743695A89120903231340032B29
S1130EF001D0022070470120FCE74169012A08D093
S1130F00022A0ED0002A03D1002B12D001234B71E8
S1130F107047002B02D104330B71F9E704234B71A2
S1130F20F6E7002B02D102330B71F1E702234B7178
S1130F30EEE701330B71EBE710B5024B1868024B77
S1130F40984710BD98000020710C0000BFF34F8F2C
S1130F5030BF704710B5094B5A685A600220084BDD
S1130F609847084B9847084B9847084B9847084BB5
S1130F709847FF20074B984710BDC04600400041EA
S1130F80BF100000411000005D1000002D10000093
S1130F9095100000F10F0000002309E0124AD05C14
S1130FA01A00203292008621C90550500133DBB269
S1130FB02C2BF3D900230BE059000B4A5218108E46
S1130FC01A00083292008621C90550500133DBB261
S1130FD00B2BF1D98623DB05802252025A61034A86
S1130FE01A6100207047C046982C0000FFFFFEFFE6
S1130FF0C30707D5094A0A4B1A62094B5A68094BB9
S11310001A42FAD1830707D5074A054B5A62044BA3
S11310105A68044B1A42FAD17047C04606210200AE
S113102000180040FD07000003212000034B0822A4
S11310309A71043A5A71033A1A71704700040040D5
S1131040054AD3691B0A1B02F82149010B40D361ED
S1131050002313617047C04600100040C2220C4BAD
S11310601A7538230A4AD35C9B07FAD4084BDB6809
S1131070DB06FBD5064A137D802149420B43DBB2D4
S113108013753823024AD25C2A3B1A42F9D17047BD
S1131090000C00407047022804D00DD3031FDBB2BC
S11310A0022B09D88021C9054B78072293431040AD
S11310B018434870002070470D204042FBE780230E
S11310C0DB059B780322134098420ED08022D20580
S11310D0FF239371937803218B4308401843907046
S11310E08023DB059B79002BFAD0704710B50400F0
S11310F003689B89DB0500D410BD436898472368C7
S1131100802252009A81F7E710B5041E34D0036898
S1131110002B2FD001202F221849194B9847194B27
S11311201C6021680A69184B1A42FBD10B889B0783
S11311300BD50B88022293430B800A69124B1A4287
S1131140FBD1226813699B07FCD422681388012110
S11311500B439BB213801369DB07FCD423681A6921
S1131160D207FCD4094A1A801969074A1142FBD1F3
S1131170002010BD0020CEE70020CCE7E02C0000CA
S1131180B10A00009C000020038000000081FFFFE2
S113119010B5024B1868024B984710BD9C00002004
S11311A0ED100000054B984206D0BE231B069C465A
S11311B06044800AC0B270470520FCE70004004385
S11311C010B50B4B984702000020002806D0094AAE
S11311D009490020094B9847002010BD83001B18C3
S11311E09900074BCB5C9A42F7D00130C0B2ECE7D0
S11311F0A51100003D020000482D0000B10A0000C6
S1131200F82C000070B50400384B9847E369DB07FD
S11312101DD483001B189A00354B9B185A681C2355
S11312201A40E3699B07FCD123689B0709D523680F
S113123002218B432360E3699B07FCD1E3699B078D
S1131240FCD4012313432360E3699B07FCD1E369C6
S1131250DB07FCD483001B189A00254B9B185B68A2
S11312602360E3699B07FCD183001B189A00204B81
S11312709B189B686360E3695B07FCD183001B18C0
S11312809A001B4B9B185B689A040BD4C022D201B2
S1131290134207D183001B189A00154B9B189B8996
S11312A0A38115E083001B189A00114989188A89C3
S11312B0A389D204D20C5B0B5B031343A3818B7B06
S11312C007221A40A3895203DB04DB0C1343A381D6
S11312D0074A83001D18A9000D005118C97BA1738A
S11312E05219127C3023E254002070BDC111000059
S11312F0F82C000070B505000C00431E9841C0B2E4
S1131300B4220449044B98472C602000034B9847AF
S113131070BDC046482D0000B10A0000051200004F
S11313200268136802210B431360D3699B07FCD145
S11313307047036889B2198570470368188DC0B275
S113134070470368187E01231840704703681B7EAA
S11313505B0801201840704703681B7E9B0801202E
S11313601840704710B5C3689A7AD20700D410BDEC
S113137001229A7203689847F9E70000034B9842E8
S113138000D07047024B1960FBE7C04600200042C2
S1131390A000002010B5114B984210D0104B9C4671
S11313A06044800AC3B2002000280AD09E22520062
S11313B00C4900200C4B98470120404210BD0423E7
S11313C0F1E7820012189100084A8A5C9A4202D01E
S11313D00130C0B2E8E740B2F0E7C046000800437D
S11313E000E0FFBD782D0000B10A0000642D00006C
S11313F070B506000C0008005E4B98470500F460C9
S11314008D225D4901205D4B98472369DB0714D485
S113141023699B07FCD123689B0709D52368022213
S11314209343236023699B07FCD123699B07FCD466
S11314300123236023699B07FCD12369DB07FCD4C8
S1131440AB005B199A004E4B9B185B6823602369C1
S11314509B07FCD1AA0052199100494B5B189A7A58
S1131460E2731A89E280012222735A680C23134022
S1131470082B51D0002B5ED1AB005B199A00404B76
S11314809B189B89A3832369C0221A42FBD10023A2
S1131490E3832369C0221A42FBD101236372310022
S11314A02000384B9847AB005B199A00344B9B18CB
S11314B05B785BB2002B0BDB1F2213401E3A9A4071
S11314C01300802230498B50BFF34F8FBFF36F8FCF
S11314D0AB005B199A002A4B9B185B785BB2002B1C
S11314E008DB1F2213401E3A9A401300C022520008
S11314F025498B50AB005D19AA00214B9B185B78E2
S11315005BB2002B06DB1F2213401E3A9A401300E5
S11315101D4A1360002070BD194B5B18DB68E36142
S11315202369C0221A42FBD1002323622369C0220B
S11315301A42FBD1B1E7042BAFD1AB005B199A007F
S11315400F4B9B181B7B23772369C0221A42FBD1C4
S1131550002363772369C0221A42FBD1AB005B19D5
S11315609A00074B9B18DB7AE37623699B06FCD42D
S113157093E7C04695130000782D0000B10A0000DF
S1131580642D00007D13000000E100E0C2681368D0
S113159002210B43136013699B07FCD17047C26897
S11315A013699B07FCD113685B080120184070473E
S11315B00020704710B5024B1868024B984710BDC5
S11315C0A0000020651300000122014B1A7070472F
S11315D0A400002070B50B4C002300220021200041
S11315E0094DA8470023022200212000A847074BE9
S11315F0012200212000064DA84700212000054BB0
S1131600984770BDC0000020FB0E0000C915000003
S1131610C905000089050000F8B50C4C012300221F
S1131620002120000A4DA8470A4EB21C02230021C3
S11316302000094FB84771880848094B9847002390
S1131640002200212000A847F8BDC046C0000020A9
S1131650FB0E0000A4000020450600008C2D0000B5
S1131660E91A000010B50D4B98470D4B98470D48EB
S11316700D4B98470D480E4B984704200D4B984747
S113168002E004200B4B98470B4B1B78002BF8D03F
S11316900022094B1A70094B9847F2E71501000024
S11316A0D5150000A82D0000DD1B0000200100203E
S11316B01D090000FD070000A40000201916000009
S11316C010B50B00002809D111001800054B9847EC
S11316D0002800DB10BD01204042FBE7012040420E
S11316E0F8E7C0463D17000010B50B00013802288A
S11316F009D811001800054B9847002800DB10BDDD
S113170001204042FBE701204042F8E76117000056
S113171070B50600064D2B6898680021054CA0475B
S11317202B6858680021A047034B1E6070BDC0465B
S113173000000020F11B0000A800002010B50400E8
S1131740054B1868002804D08AB22100034B98473F
S113175010BD0020FCE7C046A8000020C50700001B
S113176010B50400054B1868002804D08AB2210083
S1131770034B984710BD0020FCE7C046A80000209A
S11317808D07000010B5044C2000044B984720003E
S1131790034B984710BDC046B4000020850A0000E2
S11317A011170000002243088B4274D303098B42B3
S11317B05FD3030A8B4244D3030B8B4228D3030C1D
S11317C08B420DD3FF22090212BA030C8B4202D3BF
S11317D01212090265D0030B8B4219D300E0090AE7
S11317E0C30B8B4201D3CB03C01A5241830B8B42F0
S11317F001D38B03C01A5241430B8B4201D34B03D9
S1131800C01A5241030B8B4201D30B03C01A52413D
S1131810C30A8B4201D3CB02C01A5241830A8B42C2
S113182001D38B02C01A5241430A8B4201D34B02AB
S1131830C01A5241030A8B4201D30B02C01A52410F
S1131840CDD2C3098B4201D3CB01C01A52418309C3
S11318508B4201D38B01C01A524143098B4201D3FD
S11318604B01C01A524103098B4201D30B01C01A28
S11318705241C3088B4201D3CB00C01A52418308A2
S11318808B4201D38B00C01A524143088B4201D3CF
S11318904B00C01A5241411A00D20146524110462F
S11318A07047FFE701B5002000F0F0F802BDC04624
S11318B00029F7D076E7704703460B437FD4002214
S11318C043088B4274D303098B425FD3030A8B42D0
S11318D044D3030B8B4228D3030C8B420DD3FF223A
S11318E0090212BA030C8B4202D31212090265D008
S11318F0030B8B4219D300E0090AC30B8B4201D3BB
S1131900CB03C01A5241830B8B4201D38B03C01A01
S11319105241430B8B4201D34B03C01A5241030B78
S11319208B4201D30B03C01A5241C30A8B4201D329
S1131930CB02C01A5241830A8B4201D38B02C01AD4
S11319405241430A8B4201D34B02C01A5241030A4B
S11319508B4201D30B02C01A5241CDD2C3098B4230
S113196001D3CB01C01A524183098B4201D38B01AD
S1131970C01A524143098B4201D34B01C01A524150
S113198003098B4201D30B01C01A5241C3088B4295
S113199001D3CB00C01A524183088B4201D38B0080
S11319A0C01A524143088B4201D34B00C01A524122
S11319B0411A00D201465241104670475DE0CA0FF9
S11319C000D04942031000D34042534000229C46B9
S11319D003098B422DD3030A8B4212D3FC228901C3
S11319E012BA030A8B420CD3890192118B4208D399
S11319F0890192118B4204D389013AD0921100E0FB
S1131A008909C3098B4201D3CB01C01A524183090E
S1131A108B4201D38B01C01A524143098B4201D33B
S1131A204B01C01A524103098B4201D30B01C01A66
S1131A305241C3088B4201D3CB00C01A52418308E0
S1131A408B4201D38B00C01A5241D9D243088B4236
S1131A5001D34B00C01A5241411A00D201466346D9
S1131A6052415B10104601D34042002B00D549423D
S1131A70704763465B1000D3404201B5002000F07C
S1131A8005F802BD0029F8D016E770477047C04634
S1131A9070B500260C4D0D4C641BA410A64209D150
S1131AA0002601F0D5F90A4D0A4C641BA410A64285
S1131AB005D170BDB300EB5898470136EEE7B3008B
S1131AC0EB5898470136F2E75C2E00005C2E0000CC
S1131AD05C2E0000602E000003008218934200D1A7
S1131AE0704719700133F9E70FB40B4B13B51C6839
S1131AF0002C05D0A369002B02D1200000F0F2FADB
S1131B0005AB049AA1682000019300F0C7FC16BC41
S1131B1008BC04B01847C0460000002070B505009A
S1131B200E00002804D08369002B01D100F0DAFAFA
S1131B30AB69AC68002B02D1280000F0D3FA244B27
S1131B409C420FD16C68A3891B0702D52369002B23
S1131B5020D12100280000F057F900281AD00120D4
S1131B60404270BD1B4B9C4201D1AC68EBE71A4B61
S1131B709C42E8D1EC68E6E7013B0136A360002B08
S1131B8004DAA269934216DB0A2914D023685A1C8A
S1131B90226019703178A3680029EDD1013BA3605C
S1131BA0002B0FDA22000A31280000F0D7F8431C7A
S1131BB0D5D00A20D5E72200280000F0CFF8431C36
S1131BC0E8D1CCE70A2023685A1C22601870C8E7C1
S1131BD0DC2D0000FC2D0000BC2D000010B5034BD3
S1131BE001001868FFF79AFF10BDC04600000020EE
S1131BF04A424A41802310B55200DB0000F002F84B
S1131C0010BD0000F0B51D004F4B85B01E680400E8
S1131C100F000092002E05D0B369002B02D13000D2
S1131C2000F060FA494B9C4250D17468009B022B2F
S1131C3005D0012B00D984E0002D00DA81E02100D9
S1131C40300000F0E1F9616B002908D0230044332F
S1131C50994202D0300000F051FB0023636300235B
S1131C60A3616360A3891B0603D52169300000F0DA
S1131C7045FBA389364A1340A381009B022B5AD00B
S1131C8003AB02AA2100300000F0C2FAA389184372
S1131C90A081002D24D1029D280000F025FB019590
S1131CA0071E42D1029B0193AB4239D1012040422D
S1131CB00223A2891343A3810023A3602300473393
S1131CC0236023610123636105B0F0BD214B9C4275
S1131CD001D1B468AAE7204B9C42A7D1F468A5E7D8
S1131CE0002FD9D0B369002B02D1300000F0FAF9EB
S1131CF0009B012B03D1A389009A1A43A2810820D7
S1131D00A389276027616561184018D00120184015
S1131D100023984211D06D42A360A5611800D3E757
S1131D20019800F0E1FA071EC0D08023A289019D2A
S1131D301343A381D6E70020BAE7A560C4E7A060F7
S1131D40C2E701204042BFE700000020DC2D000074
S1131D505CF3FFFFFC2D0000BC2D0000F8B505006E
S1131D600E001400002804D08369002B01D100F078
S1131D70B9F9224B9C422DD16C68A369A360A38955
S1131D801B0731D52369002B2ED023682269F7B2B3
S1131D90981A6369F6B2984205DB2100280000F026
S1131DA033F9002826D1A3680130013BA3602368DE
S1131DB05A1C22601F706369984204D0A389DB0710
S1131DC01AD50A2E18D12100280000F01DF9002888
S1131DD012D00FE00A4B9C4201D1AC68CDE7094B0D
S1131DE09C42CAD1EC68C8E72100280000F00CF836
S1131DF00028CAD0012676423000F8BDDC2D000050
S1131E00FC2D0000BC2D0000364B70B51D6806008B
S1131E100C00002D05D0AB69002B02D1280000F086
S1131E2061F9314B9C420FD16C680C23E25E93B292
S1131E3019072DD4D90611D409230120336037336F
S1131E401343A381404270BD284B9C4201D1AC682E
S1131E50EBE7274B9C42E8D1EC68E6E75B0713D538
S1131E60616B002908D023004433994202D030002A
S1131E7000F044FA002363632422A3899343A381DB
S1131E8000236360236923600823A2891343A38189
S1131E902369002B0BD1A0218022A3898900920001
S1131EA00B40934203D02100300000F0D9F9012304
S1131EB0A289134011D00023A36063695B42A3612C
S1131EC0002023698342BED10C23E25E1306BAD5F7
S1131ED040231343A3810138B5E7920700D4636913
S1131EE0A360EDE700000020DC2D0000FC2D0000C5
S1131EF0BC2D0000F7B58A8905000C00130760D4D7
S1131F004B68002B04DC0B6C002B01DC0020FEBDB5
S1131F10E76A002FFAD000232E682B6080235B0130
S1131F201A4034D0606DA3895B0706D56368C01A74
S1131F30636B002B01D0236CC01A0200216A0023BA
S1131F402800E76AB847A189431C06D12B681D2BDA
S1131F5031D82C4ADA40D3072DD500236360236996
S1131F602360CB0405D5431C02D12B68002B00D180
S1131F706065616B2E600029C8D023004433994208
S1131F8002D0280000F0BAF900206063BFE7012303
S1131F90216A2800B847431CC5D12B68002BC2D046
S1131FA01D2B01D0162B01D12E60AFE74023A2894F
S1131FB01343A381ABE740230B430120A381404299
S1131FC0A5E70F69002FA1D00B680F60DB1B0193FD
S1131FD00023920700D14B69A360019B002B00DC16
S1131FE094E7019B3A00216A2800A66AB0470028BA
S1131FF003DC4023A2891343DFE7019B3F181B1A2C
S11320000193EAE7010040200B6970B505000C005C
S1132010002B01D1002070BD002804D08369002B5F
S113202001D100F05FF80B4B9C4209D16C680C2283
S1132030A35E002BEED021002800FFF75BFFEAE748
S1132040054B9C4201D1AC68F1E7044B9C42EED1B4
S1132050EC68ECE7DC2D0000FC2D0000BC2D00003A
S113206010B5024900F0B2F810BDC04609200000C6
S1132070002310B5040003604360836081814366DC
S1132080C281036143618361190008225C30FFF758
S113209023FD054B24626362044BA362044BE36299
S11320A0044B236310BDC046092A0000312A0000F6
S11320B0692A0000952A000070B568254A1E554318
S11320C00E002900743100F063F9041E08D00021C9
S11320D02A00016046600C30A0606832FFF7FCFC07
S11320E0200070BD836913B50400002B28D18364DC
S11320F0C3640365134B144A1B68826201939842BC
S113210001D101238361200000F020F860602000E9
S113211000F01CF8A060200000F018F80022E06035
S113212004216068FFF7A4FF01220921A068FFF7DA
S11321309FFF02221221E068FFF79AFF0123A361A7
S113214013BDC046B82D000061200000F8B51E4B39
S113215007001E68B369002B02D13000FFF7C2FFED
S11321604836B4687368013B04D53368002B07D044
S11321703668F6E70C22A55E002D0DD06834F2E730
S113218004213800FFF798FF30600028F0D10C23B9
S113219004003B602000F8BD012320005B42E38182
S11321A00233A38165662560A5606560256165616C
S11321B0A561082229005C30FFF78EFC6563A563E6
S11321C0A564E564E6E7C046B82D0000F7B5040051
S11321D00700002601914834002C01D13000FEBDD7
S11321E06368A5680093009B013B009301D52468B4
S11321F0F2E7AB89012B08D90E22AB5E013304D080
S113220029003800019B984706436835EBE7000036
S113221070B50E001D000E23C95E90B01400002995
S113222007DA00232B60B3891B0611D48023DB005B
S11322300FE001AA00F05AFC0028F2DBF022029B16
S113224012021340054A9B185A4253412B60EDE792
S113225040230020236010B070BDC04600E0FFFFA3
S1132260F7B502268B8905000C00334206D0230003
S113227047332360236101236361F7BD01AB6A46E1
S1132280FFF7C6FF00990700280000F081F8002836
S113229008D10C22A35E9A05EFD4032293431E4374
S11322A0A681E4E70F4BAB628023A289206013432D
S11322B0A381009B20616361019B002B0DD00E2341
S11322C0E15E280000F024FC002806D00322A38944
S11322D093431A0001231343A381A0893843A081A7
S11322E0CBE7C0466120000010B5034B010018681D
S11322F000F04EF810BDC0460000002070B5050087
S1132300002910D00C1F2368002B00DAE4182800E1
S113231000F02FFC1D4A1368002B05D16360146084
S1132320280000F027FC70BDA34209D92168601879
S11323308342F3D118685B6841182160EEE713000B
S11323405A68002A01D0A242F9D919685818A04243
S11323500BD120680918581819608242E0D110681E
S11323605268411819605A60DAE7A04202D90C2376
S11323702B60D5E721686018824203D11068526847
S11323804118216062605C60CAE7C046AC0000206E
S1132390032370B5CD1C9D43083506000C2D1ED2B9
S11323A00C25A9421DD8300000F0E3FB254A14682F
S11323B02100002919D1244C2368002B03D13000BB
S11323C000F010FB20602900300000F00BFB431CE0
S11323D02CD10C233000336000F0CCFB03E0002D43
S11323E0DFDA0C233360002070BD0B685B1B1AD44A
S11323F00B2B03D90B60CC18256003E08C420ED163
S113240063681360300000F0B5FB200007220B3036
S1132410231D9043C31AE7D05A42E250E4E74B68C5
S113242063600C00EEE70C004968C2E70323C41C98
S11324309C43A042E0D0211A300000F0D3FA431CA0
S1132440DAD1C6E7AC000020B0000020936810B5D4
S1132450013B9360002B05DA9469A34208DBCBB2FD
S11324600A2B05D01368581C10601970C8B210BD2F
S1132470FFF774FCFBE7F8B506000F001400D5184D
S1132480AC4201D1002007E021783A003000FFF788
S1132490DDFF0134431CF3D1F8BD0000F0B59FB05B
S11324A006000F0014000593002804D08369002B54
S11324B001D1FFF717FE7F4B9F425CD17768BB8940
S11324C01B0762D53B69002B5FD0002306AD6B610F
S11324D020336B761033AB760294029C2378002B66
S11324E05DD1029BE31A04930DD0049B029A390038
S11324F03000FFF7C0FF431C00D1CCE06A69049BA5
S1132500944663446B612378002B00D1C3E001221D
S1132510002352426A6002A95432521801342B60DB
S1132520EB60AB601370AB6521780522624800F064
S113253015FB631C9C46002835D12968CB0604D5BD
S1132540532302AA20309B1818700B0704D5532379
S11325502B2002AA9B18187023782A2B2CD0002039
S11325600A21099B2278303A092A00D86BE0002816
S11325702AD0099328E0514B9F4201D1B7689EE7C6
S11325804F4B9F429BD1F76899E739003000FFF722
S11325903BFC002899D0012040421FB0F0BD252B00
S11325A09FD001349AE7444B2968C01A0123834021
S11325B00B432B606446B7E7059B181D1B68059009
S11325C0002B3ADB0993644623782E2B0BD16378D6
S11325D0621C2A2B3FD1059B02341A1D1B680592ED
S11325E0002B35DB079321780322364800F0B6FA36
S11325F0002807D0334B2A68C01A40238340134372
S11326002B6001342178631C06222F48029329761B
S113261000F0A4FA002844D02C4B002B2FD12968B9
S1132620059B0722C90528D59B18934308330593B6
S11326306B69039A9B186B614FE75B42EB60022363
S11326400B432B60BFE74B4301349B18012089E700
S113265001235B42C6E7002314000A201A006B60C2
S113266021783039092903D9002BBCD00792BAE765
S11326704243013452180123F2E70733D5E705AB8F
S113268000933A00124B2900300000E000BF039091
S1132690039B0133CCD1BB895B0600D57BE70B9848
S11326A07BE705AB00933A00094B2900300000F0AA
S11326B07FF8ECE7DC2D00001C2E0000FC2D000050
S11326C0BC2D0000222E0000262E00000000000079
S11326D077240000F7B5150001938A680B69009010
S11326E00C00934200DA130022002B60433212786C
S11326F0002A01D001332B6023689B0602D52B6886
S113270002332B60062723681F4027D0230043335E
S11327101B785A1E93412268920630D422000199F4
S113272043320098089EB047431C25D006232068F6
S11327302A68E16803400025042B03D18D1AEB437A
S1132740DB171D40A3682269934201DD9B1AED1833
S11327500027BD4220D1002010E00137E3682A6839
S11327609B1A9F42D2DA2200012319320199009860
S1132770089EB047431CF0D101204042FEBD3020EA
S1132780E1184331087021005A1C45310978A21818
S1132790433202331170C1E7220001231A32019936
S11327A00098089EB047431CE6D00137D1E70000EB
S11327B0F0B58BB006920A00433207930590049259
S11327C00A7E0C00109B6E2A00D18FE017D8632A72
S11327D02CD008D8002A00D199E0582A54D02600D9
S11327E04236327029E0642A01D0692AF7D121687F
S11327F01A68080623D5111D1960156825E0732A87
S113280000D188E008D86F2A29D0702AE7D1202285
S113281009680A43226003E0752A20D0782ADED1B1
S113282022007821453211706C4A30E00E001A689B
S11328304236111D196013683370012379E049068B
S1132840D9D5111D19600023D55E002D03DA2D237F
S1132850049A6D421370624B0A2703932FE0206899
S11328601968050603D5081D18600D6805E04006C3
S1132870F9D50D68081D1860ADB2594B08270393AC
S11328806F2A18D00A2716E045310A70544A039279
S11328901A682168101D18601568080622D5CB0730
S11328A002D52023194321601027002D03D12023B2
S11328B022689A4322602300002243331A7063681B
S11328C0A360002B5CDB0422216891432160002D6E
S11328D058D1049E002B64D02600039B42361B78FB
S11328E033705EE04806DAD5ADB2D8E709681A68F5
S11328F0080605D5111D1960136862691A6006E09F
S11329004906F7D5111D19601368A28A1A8000239D
S1132910049E236154E01A68111D19601668002191
S11329206268300000F01AF9002801D0801B606052
S1132930636823610023049A137041E02369320021
S113294006990598079DA847431C43D02368002592
S11329509B070FD4099BE06898423DDA18003BE0DE
S113296022000123193206990598079EB047431C9B
S113297030D00135E368099A9B1A9D42F0DBE9E700
S1132980002DA9D0049E28003900FEF791FF039B77
S1132990013E5B5C280033703900FEF703FF051E1F
S11329A0F1D1082F09D12368DB0706D563682269B2
S11329B0934202DC3023013E3370049B9B1B236152
S11329C0079B09AA00932100069B0598FFF782FE46
S11329D0431CB3D1012040420BB0F0BD3E2E000099
S11329E02D2E0000002370B5064C0500080023605E
S11329F0FEF710F9431C03D12368002B00D02B6091
S1132A0070BDC0463C01002070B50C000E25495F26
S1132A1000F0B2F8002803DB636D1B18636570BD1A
S1132A20A389024A1340A381F9E7C046FFEFFFFFE1
S1132A30F8B51F008B8905000C001600DB0505D5D1
S1132A400E23C95E0022022300F074F8A389054A0C
S1132A5028001340A38132000E23E15E3B0000F006
S1132A601FF8F8BDFFEFFFFF70B50C000E25495F9E
S1132A7000F060F8A389421C03D1054A1340A381E6
S1132A8070BD802252011343A3816065F8E7C046FC
S1132A90FFEFFFFF10B50E23C95E00F015F810BD5F
S1132AA070B50500080011000022064C22601A00CF
S1132AB0FEF71AFE431C03D12368002B00D02B60C1
S1132AC070BDC0463C010020002370B5064C0500D3
S1132AD008002360FEF7B0F8431C03D12368002BE1
S1132AE000D02B6070BDC0463C010020002370B5AF
S1132AF0064C0500080011002360FEF7A0F8431CF3
S1132B0003D12368002B00D02B6070BD3C01002052
S1132B10002370B5064C050008002360FEF794F806
S1132B20431C03D12368002B00D02B6070BDC0462A
S1132B303C01002070B50500080011000022064C7D
S1132B4022601A00FEF782F8431C03D12368002B8D
S1132B5000D02B6070BDC0463C010020C9B2821871
S1132B60904201D10020704703788B42FBD00130A2
S1132B70F6E770477047000070B5050008001100C3
S1132B800022064C22601A00FEF79AFD431C03D172
S1132B902368002B00D02B6070BDC0463C01002090
S1132BA02E2E2F68616C2F7372632F68616C5F61C6
S1132BB064635F6173796E632E6300002E2E2F6849
S1132BC0616C2F7372632F68616C5F63616C656EF7
S1132BD06461722E630000002E2E2F68616C2F73C7
S1132BE072632F68616C5F696F2E63002E2E2F68ED
S1132BF0616C2F7372632F68616C5F74696D6572A9
S1132C002E6300002E2E2F68616C2F7372632F6861
S1132C10616C5F75736172745F73796E632E6300A8
S1132C202E2E2F68616C2F7574696C732F73726309
S1132C302F7574696C735F6C6973742E6300000084
S1132C402E2E2F68616C2F7574696C732F737263E9
S1132C502F7574696C735F72696E676275666665F9
S1132C60722E63000040000022000D1800010200D3
S1132C700004000400000000000000000000000048
S1132C802E2E2F68706C2F6164632F68706C5F61E7
S1132C9064632E63000000000000000000000000D8
S1132CA00000000000000000000000000000000020
S1132CB0000000000000000100000000000000000F
S1132CC00000000000000000354200000000000089
S1132CD000000000000000000000000000000000F0
S1132CE02E2E2F68706C2F7274632F68706C5F7255
S1132CF074632E6300000000030000008400104091
S1132D000000030012140000000000000000000096
S1132D1000000000000000000000000000000000AF
S1132D20000000000000000000000000000000009F
S1132D30000000000000000000000000000000008F
S1132D4000000000000000002E2E2F68706C2F730E
S1132D506572636F6D2F68706C5F736572636F6DFE
S1132D602E63000000110000C802000000010000F2
S1132D7000010000000000002E2E2F68706C2F74DC
S1132D80632F68706C5F74632E6300004D6F6E690F
S1132D90746F72212120414443205661756C652073
S1132DA03A2025640D0A0000536C6565702074692F
S1132DB06768742E2E2E0D00040000200000000011
S1132DC000000000000000000000000000000000FF
S1132DD000000000000000000000000000000000EF
S1132DE000000000000000000000000000000000DF
S1132DF000000000000000000000000000000000CF
S1132E0000000000000000000000000000000000BE
S1132E10000000000000000000000000232D302B03
S1132E202000686C4C0065666745464700303132C7
S1132E30333435363738394142434445460030311E
S1132E40323334353637383961626364656600007D
S1132E50F8B5C046F8BC08BC9E467047DD000000CB
S1132E60F8B5C046F8BC08BC9E467047B5000000E3
S1132E700400002000000000DC2D0000FC2D0000F8
S1132E80BC2D000000000000000000000000000055
S1132E90000000000000000000000000000000002E
S1132EA0000000000000000000000000000000001E
S1132EB0000000000000000000000000000000000E
S1132EC000000000000000000000000000000000FE
S1072ED000000000FA
S9030000FC
